{
  "contractName": "OraclesChainlink",
  "abi": [
    {
      "inputs": [],
      "stateMutability": "nonpayable",
      "type": "constructor"
    },
    {
      "inputs": [],
      "name": "getLatestPrice",
      "outputs": [
        {
          "internalType": "int256",
          "name": "",
          "type": "int256"
        }
      ],
      "stateMutability": "view",
      "type": "function",
      "constant": true
    },
    {
      "inputs": [],
      "name": "metaData",
      "outputs": [
        {
          "internalType": "uint8",
          "name": "",
          "type": "uint8"
        },
        {
          "internalType": "string",
          "name": "",
          "type": "string"
        }
      ],
      "stateMutability": "view",
      "type": "function",
      "constant": true
    }
  ],
  "bytecode": "0x608060405234801561001057600080fd5b50739326bfa02add2366b30bacb125260af6410313316000806101000a81548173ffffffffffffffffffffffffffffffffffffffff021916908373ffffffffffffffffffffffffffffffffffffffff1602179055506106ac806100746000396000f3fe608060405234801561001057600080fd5b50600436106100365760003560e01c80638e15f4731461003b578063baf2a4eb14610059575b600080fd5b610043610078565b604051610050919061027b565b60405180910390f35b610061610125565b60405161006f92919061034b565b60405180910390f35b60008060008060008060008054906101000a900473ffffffffffffffffffffffffffffffffffffffff1673ffffffffffffffffffffffffffffffffffffffff1663feaf968c6040518163ffffffff1660e01b815260040160a060405180830381865afa1580156100ec573d6000803e3d6000fd5b505050506040513d601f19601f820116820180604052508101906101109190610433565b94509450945094509450839550505050505090565b6000606060008060009054906101000a900473ffffffffffffffffffffffffffffffffffffffff1673ffffffffffffffffffffffffffffffffffffffff1663313ce5676040518163ffffffff1660e01b8152600401602060405180830381865afa158015610197573d6000803e3d6000fd5b505050506040513d601f19601f820116820180604052508101906101bb91906104da565b905060008060009054906101000a900473ffffffffffffffffffffffffffffffffffffffff1673ffffffffffffffffffffffffffffffffffffffff16637284e4166040518163ffffffff1660e01b8152600401600060405180830381865afa15801561022b573d6000803e3d6000fd5b505050506040513d6000823e3d601f19601f82011682018060405250810190610254919061062d565b905081819350935050509091565b6000819050919050565b61027581610262565b82525050565b6000602082019050610290600083018461026c565b92915050565b600060ff82169050919050565b6102ac81610296565b82525050565b600081519050919050565b600082825260208201905092915050565b60005b838110156102ec5780820151818401526020810190506102d1565b838111156102fb576000848401525b50505050565b6000601f19601f8301169050919050565b600061031d826102b2565b61032781856102bd565b93506103378185602086016102ce565b61034081610301565b840191505092915050565b600060408201905061036060008301856102a3565b81810360208301526103728184610312565b90509392505050565b6000604051905090565b600080fd5b600080fd5b600069ffffffffffffffffffff82169050919050565b6103ae8161038f565b81146103b957600080fd5b50565b6000815190506103cb816103a5565b92915050565b6103da81610262565b81146103e557600080fd5b50565b6000815190506103f7816103d1565b92915050565b6000819050919050565b610410816103fd565b811461041b57600080fd5b50565b60008151905061042d81610407565b92915050565b600080600080600060a0868803121561044f5761044e610385565b5b600061045d888289016103bc565b955050602061046e888289016103e8565b945050604061047f8882890161041e565b93505060606104908882890161041e565b92505060806104a1888289016103bc565b9150509295509295909350565b6104b781610296565b81146104c257600080fd5b50565b6000815190506104d4816104ae565b92915050565b6000602082840312156104f0576104ef610385565b5b60006104fe848285016104c5565b91505092915050565b600080fd5b600080fd5b7f4e487b7100000000000000000000000000000000000000000000000000000000600052604160045260246000fd5b61054982610301565b810181811067ffffffffffffffff8211171561056857610567610511565b5b80604052505050565b600061057b61037b565b90506105878282610540565b919050565b600067ffffffffffffffff8211156105a7576105a6610511565b5b6105b082610301565b9050602081019050919050565b60006105d06105cb8461058c565b610571565b9050828152602081018484840111156105ec576105eb61050c565b5b6105f78482856102ce565b509392505050565b600082601f83011261061457610613610507565b5b81516106248482602086016105bd565b91505092915050565b60006020828403121561064357610642610385565b5b600082015167ffffffffffffffff8111156106615761066061038a565b5b61066d848285016105ff565b9150509291505056fea264697066735822122085c21e8c80fcc7ccdf2385810c83f5f128728918b55d62d0450fc9de110e4c7a64736f6c634300080a0033",
  "immutableReferences": {},
  "source": "// SPDX-License-Identifier: MIT\npragma solidity ^0.8.10;\n\nimport \"@chainlink/contracts/src/v0.8/interfaces/AggregatorV3Interface.sol\";\n\ncontract OraclesChainlink {\n\n    AggregatorV3Interface internal priceFeed;\n\n    /**\n     * Network: Kovan\n     * Aggregator: ETH/USD\n     * Address: 0x9326BFA02ADD2366b30bacB125260Af641031331\n     */\n    constructor() {\n        priceFeed = AggregatorV3Interface(0x9326BFA02ADD2366b30bacB125260Af641031331);\n    }\n\n    /**\n     * Returns the latest price\n     */\n    function getLatestPrice() public view returns (int) {\n        (\n            uint80 roundID,\n            int price,\n            uint startedAt,\n            uint timeStamp,\n            uint80 answeredInRound\n        ) = priceFeed.latestRoundData();\n        return price;\n    }\n\n\n    function metaData() public view returns(uint8, string memory) {\n        uint8 dec = priceFeed.decimals();\n        string memory des = priceFeed.description();\n        return (dec, des);\n    }\n}\n",
  "sourcePath": "C:\\Rula01\\01_Lernen\\MyProjects\\oraclesChainlink\\contracts\\oraclesChainlink.sol",
  "compiler": {
    "name": "solc",
    "version": "0.8.10+commit.fc410830.Emscripten.clang"
  },
  "schemaVersion": "3.4.3",
  "updatedAt": "2022-02-17T11:09:20.402Z",
  "networkType": "ethereum",
  "devdoc": {
    "kind": "dev",
    "methods": {},
    "version": 1
  },
  "userdoc": {
    "kind": "user",
    "methods": {
      "constructor": {
        "notice": "Network: Kovan Aggregator: ETH/USD Address: 0x9326BFA02ADD2366b30bacB125260Af641031331"
      },
      "getLatestPrice()": {
        "notice": "Returns the latest price"
      }
    },
    "version": 1
  }
}